{
  "contractName": "SpiroAgreementManager",
  "abi": [
    {
      "inputs": [],
      "stateMutability": "nonpayable",
      "type": "constructor"
    },
    {
      "anonymous": false,
      "inputs": [
        {
          "indexed": false,
          "internalType": "uint256",
          "name": "agreementId",
          "type": "uint256"
        },
        {
          "indexed": false,
          "internalType": "address",
          "name": "vendor",
          "type": "address"
        },
        {
          "indexed": false,
          "internalType": "string",
          "name": "vendorName",
          "type": "string"
        },
        {
          "indexed": false,
          "internalType": "string",
          "name": "ipfsCID",
          "type": "string"
        },
        {
          "indexed": false,
          "internalType": "string",
          "name": "agreementHash",
          "type": "string"
        }
      ],
      "name": "AgreementCreated",
      "type": "event"
    },
    {
      "anonymous": false,
      "inputs": [
        {
          "indexed": false,
          "internalType": "uint256",
          "name": "agreementId",
          "type": "uint256"
        },
        {
          "indexed": false,
          "internalType": "address",
          "name": "signer",
          "type": "address"
        }
      ],
      "name": "AgreementSigned",
      "type": "event"
    },
    {
      "anonymous": false,
      "inputs": [
        {
          "indexed": false,
          "internalType": "uint256",
          "name": "agreementId",
          "type": "uint256"
        },
        {
          "indexed": false,
          "internalType": "uint256",
          "name": "subAgreementId",
          "type": "uint256"
        },
        {
          "indexed": false,
          "internalType": "address",
          "name": "subVendor",
          "type": "address"
        },
        {
          "indexed": false,
          "internalType": "string",
          "name": "subVendorName",
          "type": "string"
        },
        {
          "indexed": false,
          "internalType": "string",
          "name": "ipfsCID",
          "type": "string"
        },
        {
          "indexed": false,
          "internalType": "string",
          "name": "agreementHash",
          "type": "string"
        }
      ],
      "name": "SubAgreementCreated",
      "type": "event"
    },
    {
      "anonymous": false,
      "inputs": [
        {
          "indexed": false,
          "internalType": "uint256",
          "name": "agreementId",
          "type": "uint256"
        },
        {
          "indexed": false,
          "internalType": "uint256",
          "name": "subAgreementId",
          "type": "uint256"
        },
        {
          "indexed": false,
          "internalType": "address",
          "name": "subVendor",
          "type": "address"
        },
        {
          "indexed": false,
          "internalType": "string",
          "name": "subVendorName",
          "type": "string"
        }
      ],
      "name": "SubAgreementCreated",
      "type": "event"
    },
    {
      "anonymous": false,
      "inputs": [
        {
          "indexed": false,
          "internalType": "uint256",
          "name": "agreementId",
          "type": "uint256"
        },
        {
          "indexed": false,
          "internalType": "uint256",
          "name": "subAgreementId",
          "type": "uint256"
        },
        {
          "indexed": false,
          "internalType": "address",
          "name": "signer",
          "type": "address"
        }
      ],
      "name": "SubAgreementSigned",
      "type": "event"
    },
    {
      "inputs": [],
      "name": "agreementCount",
      "outputs": [
        {
          "internalType": "uint256",
          "name": "",
          "type": "uint256"
        }
      ],
      "stateMutability": "view",
      "type": "function",
      "constant": true
    },
    {
      "inputs": [],
      "name": "owner",
      "outputs": [
        {
          "internalType": "address",
          "name": "",
          "type": "address"
        }
      ],
      "stateMutability": "view",
      "type": "function",
      "constant": true
    },
    {
      "inputs": [
        {
          "internalType": "string",
          "name": "_agreementHash",
          "type": "string"
        },
        {
          "internalType": "string",
          "name": "_ipfsCID",
          "type": "string"
        },
        {
          "internalType": "address",
          "name": "_vendor",
          "type": "address"
        },
        {
          "internalType": "string",
          "name": "_vendorName",
          "type": "string"
        }
      ],
      "name": "createAgreement",
      "outputs": [],
      "stateMutability": "nonpayable",
      "type": "function"
    },
    {
      "inputs": [
        {
          "internalType": "uint256",
          "name": "_agreementId",
          "type": "uint256"
        },
        {
          "internalType": "string",
          "name": "_agreementHash",
          "type": "string"
        },
        {
          "internalType": "string",
          "name": "_ipfsCID",
          "type": "string"
        },
        {
          "internalType": "address",
          "name": "_subVendor",
          "type": "address"
        },
        {
          "internalType": "string",
          "name": "_subVendorName",
          "type": "string"
        }
      ],
      "name": "createSubAgreement",
      "outputs": [],
      "stateMutability": "nonpayable",
      "type": "function"
    },
    {
      "inputs": [
        {
          "internalType": "uint256",
          "name": "_agreementId",
          "type": "uint256"
        }
      ],
      "name": "viewAgreement",
      "outputs": [
        {
          "internalType": "string",
          "name": "agreementHash",
          "type": "string"
        },
        {
          "internalType": "string",
          "name": "ipfsCID",
          "type": "string"
        },
        {
          "internalType": "address",
          "name": "vendor",
          "type": "address"
        },
        {
          "internalType": "string",
          "name": "vendorName",
          "type": "string"
        },
        {
          "internalType": "bool",
          "name": "isComplete",
          "type": "bool"
        },
        {
          "internalType": "uint256",
          "name": "subAgreementCount",
          "type": "uint256"
        },
        {
          "internalType": "uint256[]",
          "name": "subAgreementIndexes",
          "type": "uint256[]"
        }
      ],
      "stateMutability": "view",
      "type": "function",
      "constant": true
    },
    {
      "inputs": [
        {
          "internalType": "uint256",
          "name": "_agreementId",
          "type": "uint256"
        },
        {
          "internalType": "uint256",
          "name": "_subAgreementId",
          "type": "uint256"
        }
      ],
      "name": "viewSubAgreement",
      "outputs": [
        {
          "internalType": "string",
          "name": "agreementHash",
          "type": "string"
        },
        {
          "internalType": "string",
          "name": "ipfsCID",
          "type": "string"
        },
        {
          "internalType": "address",
          "name": "subVendor",
          "type": "address"
        },
        {
          "internalType": "string",
          "name": "subVendorName",
          "type": "string"
        },
        {
          "internalType": "bool",
          "name": "isComplete",
          "type": "bool"
        }
      ],
      "stateMutability": "view",
      "type": "function",
      "constant": true
    },
    {
      "inputs": [
        {
          "internalType": "uint256",
          "name": "_agreementId",
          "type": "uint256"
        }
      ],
      "name": "signAgreement",
      "outputs": [],
      "stateMutability": "nonpayable",
      "type": "function"
    },
    {
      "inputs": [
        {
          "internalType": "uint256",
          "name": "_agreementId",
          "type": "uint256"
        },
        {
          "internalType": "uint256",
          "name": "_subAgreementId",
          "type": "uint256"
        }
      ],
      "name": "signSubAgreement",
      "outputs": [],
      "stateMutability": "nonpayable",
      "type": "function"
    }
  ],
  "bytecode": "0x608060405234801561001057600080fd5b50336000806101000a81548173ffffffffffffffffffffffffffffffffffffffff021916908373ffffffffffffffffffffffffffffffffffffffff1602179055506127d0806100606000396000f3fe608060405234801561001057600080fd5b50600436106100885760003560e01c80638da5cb5b1161005b5780638da5cb5b14610117578063bb7bb27814610135578063d95686cb14610153578063ebd9c2531461016f57610088565b806301464c9c1461008d57806303742de0146100c357806303f58885146100df5780630e6afcc8146100fb575b600080fd5b6100a760048036038101906100a29190611b05565b6101a3565b6040516100ba9796959493929190612241565b60405180910390f35b6100dd60048036038101906100d89190611b05565b6104ae565b005b6100f960048036038101906100f49190611a4c565b610b1a565b005b61011560048036038101906101109190611b2e565b610e0f565b005b61011f611152565b60405161012c91906121be565b60405180910390f35b61013d611176565b60405161014a919061246c565b60405180910390f35b61016d60048036038101906101689190611bfa565b61117c565b005b61018960048036038101906101849190611bfa565b611700565b60405161019a9594939291906121d9565b60405180910390f35b6060806000606060008060606000600160008a815260200190815260200160002090506000816006015467ffffffffffffffff81111561020c577f4e487b7100000000000000000000000000000000000000000000000000000000600052604160045260246000fd5b60405190808252806020026020018201604052801561023a5781602001602082028036833780820191505090505b50905060005b82600601548110156102a55780828281518110610286577f4e487b7100000000000000000000000000000000000000000000000000000000600052603260045260246000fd5b602002602001018181525050808061029d906126b4565b915050610240565b5081600001826001018360020160009054906101000a900473ffffffffffffffffffffffffffffffffffffffff16846003018560040160009054906101000a900460ff168660060154868680546102fb90612682565b80601f016020809104026020016040519081016040528092919081815260200182805461032790612682565b80156103745780601f1061034957610100808354040283529160200191610374565b820191906000526020600020905b81548152906001019060200180831161035757829003601f168201915b5050505050965085805461038790612682565b80601f01602080910402602001604051908101604052809291908181526020018280546103b390612682565b80156104005780601f106103d557610100808354040283529160200191610400565b820191906000526020600020905b8154815290600101906020018083116103e357829003601f168201915b5050505050955083805461041390612682565b80601f016020809104026020016040519081016040528092919081815260200182805461043f90612682565b801561048c5780601f106104615761010080835404028352916020019161048c565b820191906000526020600020905b81548152906001019060200180831161046f57829003601f168201915b5050505050935098509850985098509850985098505050919395979092949650565b60006001600083815260200190815260200160002090508060040160009054906101000a900460ff1615610517576040517f08c379a000000000000000000000000000000000000000000000000000000000815260040161050e906123ec565b60405180910390fd5b60008054906101000a900473ffffffffffffffffffffffffffffffffffffffff1673ffffffffffffffffffffffffffffffffffffffff163373ffffffffffffffffffffffffffffffffffffffff1614806105c057508060020160009054906101000a900473ffffffffffffffffffffffffffffffffffffffff1673ffffffffffffffffffffffffffffffffffffffff163373ffffffffffffffffffffffffffffffffffffffff16145b6105ff576040517f08c379a00000000000000000000000000000000000000000000000000000000081526004016105f69061242c565b60405180910390fd5b60008054906101000a900473ffffffffffffffffffffffffffffffffffffffff1673ffffffffffffffffffffffffffffffffffffffff163373ffffffffffffffffffffffffffffffffffffffff1614156107bc578060050160008060009054906101000a900473ffffffffffffffffffffffffffffffffffffffff1673ffffffffffffffffffffffffffffffffffffffff1673ffffffffffffffffffffffffffffffffffffffff16815260200190815260200160002060009054906101000a900460ff1615610703576040517f08c379a00000000000000000000000000000000000000000000000000000000081526004016106fa9061244c565b60405180910390fd5b60018160050160008060009054906101000a900473ffffffffffffffffffffffffffffffffffffffff1673ffffffffffffffffffffffffffffffffffffffff1673ffffffffffffffffffffffffffffffffffffffff16815260200190815260200160002060006101000a81548160ff0219169083151502179055507f8627d1daa39d8946525ef5ff641bab4fa900fccf251de0a3094390b09f96d72082336040516107af929190612487565b60405180910390a1610a08565b8060020160009054906101000a900473ffffffffffffffffffffffffffffffffffffffff1673ffffffffffffffffffffffffffffffffffffffff163373ffffffffffffffffffffffffffffffffffffffff161415610a075760005b816006015481101561089b5781600701600082815260200190815260200160002060040160009054906101000a900460ff16610888576040517f08c379a000000000000000000000000000000000000000000000000000000000815260040161087f906123ac565b60405180910390fd5b8080610893906126b4565b915050610817565b508060050160008260020160009054906101000a900473ffffffffffffffffffffffffffffffffffffffff1673ffffffffffffffffffffffffffffffffffffffff1673ffffffffffffffffffffffffffffffffffffffff16815260200190815260200160002060009054906101000a900460ff161561094f576040517f08c379a00000000000000000000000000000000000000000000000000000000081526004016109469061236c565b60405180910390fd5b60018160050160008360020160009054906101000a900473ffffffffffffffffffffffffffffffffffffffff1673ffffffffffffffffffffffffffffffffffffffff1673ffffffffffffffffffffffffffffffffffffffff16815260200190815260200160002060006101000a81548160ff0219169083151502179055507f8627d1daa39d8946525ef5ff641bab4fa900fccf251de0a3094390b09f96d72082336040516109fe929190612487565b60405180910390a15b5b8060050160008060009054906101000a900473ffffffffffffffffffffffffffffffffffffffff1673ffffffffffffffffffffffffffffffffffffffff1673ffffffffffffffffffffffffffffffffffffffff16815260200190815260200160002060009054906101000a900460ff168015610af357508060050160008260020160009054906101000a900473ffffffffffffffffffffffffffffffffffffffff1673ffffffffffffffffffffffffffffffffffffffff1673ffffffffffffffffffffffffffffffffffffffff16815260200190815260200160002060009054906101000a900460ff165b15610b165760018160040160006101000a81548160ff0219169083151502179055505b5050565b60008054906101000a900473ffffffffffffffffffffffffffffffffffffffff1673ffffffffffffffffffffffffffffffffffffffff163373ffffffffffffffffffffffffffffffffffffffff1614610ba8576040517f08c379a0000000000000000000000000000000000000000000000000000000008152600401610b9f9061230c565b60405180910390fd5b600073ffffffffffffffffffffffffffffffffffffffff168373ffffffffffffffffffffffffffffffffffffffff161415610c18576040517f08c379a0000000000000000000000000000000000000000000000000000000008152600401610c0f906122cc565b60405180910390fd5b6000600254905060006001600083815260200190815260200160002090508888826000019190610c49929190611935565b508686826001019190610c5d929190611935565b50848160020160006101000a81548173ffffffffffffffffffffffffffffffffffffffff021916908373ffffffffffffffffffffffffffffffffffffffff1602179055508383826003019190610cb4929190611935565b5060008160040160006101000a81548160ff02191690831515021790555060008160050160008060009054906101000a900473ffffffffffffffffffffffffffffffffffffffff1673ffffffffffffffffffffffffffffffffffffffff1673ffffffffffffffffffffffffffffffffffffffff16815260200190815260200160002060006101000a81548160ff02191690831515021790555060008160050160008773ffffffffffffffffffffffffffffffffffffffff1673ffffffffffffffffffffffffffffffffffffffff16815260200190815260200160002060006101000a81548160ff02191690831515021790555060026000815480929190610dba906126b4565b91905055507fb8401e134702cc3d2f54640dbfdf2a64e70586dacf8c1449b61cbd0eaf9a8047828686868b8b8f8f604051610dfc9897969594939291906124b0565b60405180910390a1505050505050505050565b6000600160008a815260200190815260200160002090508060020160009054906101000a900473ffffffffffffffffffffffffffffffffffffffff1673ffffffffffffffffffffffffffffffffffffffff163373ffffffffffffffffffffffffffffffffffffffff1614610eb8576040517f08c379a0000000000000000000000000000000000000000000000000000000008152600401610eaf9061238c565b60405180910390fd5b8060040160009054906101000a900460ff1615610f0a576040517f08c379a0000000000000000000000000000000000000000000000000000000008152600401610f019061232c565b60405180910390fd5b600073ffffffffffffffffffffffffffffffffffffffff168473ffffffffffffffffffffffffffffffffffffffff161415610f7a576040517f08c379a0000000000000000000000000000000000000000000000000000000008152600401610f71906122ec565b60405180910390fd5b600081600601549050600082600701600083815260200190815260200160002090508989826000019190610faf929190611935565b508787826001019190610fc3929190611935565b50858160020160006101000a81548173ffffffffffffffffffffffffffffffffffffffff021916908373ffffffffffffffffffffffffffffffffffffffff160217905550848482600301919061101a929190611935565b5060008160040160006101000a81548160ff02191690831515021790555060008160050160003373ffffffffffffffffffffffffffffffffffffffff1673ffffffffffffffffffffffffffffffffffffffff16815260200190815260200160002060006101000a81548160ff02191690831515021790555060008160050160008873ffffffffffffffffffffffffffffffffffffffff1673ffffffffffffffffffffffffffffffffffffffff16815260200190815260200160002060006101000a81548160ff021916908315150217905550826006016000815480929190611101906126b4565b91905055507fb767b356aad2646ed83807fd54a7d0781a425979f3982fc5eeecbee7dd4b4ab58b8388888860405161113d959493929190612555565b60405180910390a15050505050505050505050565b60008054906101000a900473ffffffffffffffffffffffffffffffffffffffff1681565b60025481565b6000600160008481526020019081526020016000209050600081600701600084815260200190815260200160002090508060040160009054906101000a900460ff16156111fe576040517f08c379a00000000000000000000000000000000000000000000000000000000081526004016111f59061234c565b60405180910390fd5b8160020160009054906101000a900473ffffffffffffffffffffffffffffffffffffffff1673ffffffffffffffffffffffffffffffffffffffff163373ffffffffffffffffffffffffffffffffffffffff1614806112ab57508060020160009054906101000a900473ffffffffffffffffffffffffffffffffffffffff1673ffffffffffffffffffffffffffffffffffffffff163373ffffffffffffffffffffffffffffffffffffffff16145b6112ea576040517f08c379a00000000000000000000000000000000000000000000000000000000081526004016112e19061242c565b60405180910390fd5b8160020160009054906101000a900473ffffffffffffffffffffffffffffffffffffffff1673ffffffffffffffffffffffffffffffffffffffff163373ffffffffffffffffffffffffffffffffffffffff16141561146b578060050160003373ffffffffffffffffffffffffffffffffffffffff1673ffffffffffffffffffffffffffffffffffffffff16815260200190815260200160002060009054906101000a900460ff16156113d1576040517f08c379a00000000000000000000000000000000000000000000000000000000081526004016113c8906123cc565b60405180910390fd5b60018160050160003373ffffffffffffffffffffffffffffffffffffffff1673ffffffffffffffffffffffffffffffffffffffff16815260200190815260200160002060006101000a81548160ff0219169083151502179055507f3a37274ee0d4f64ce50e9dc176a1d54fc75271f562d5fc0375d2fcab67bcb4ec84843360405161145e9392919061251e565b60405180910390a16115e9565b8060020160009054906101000a900473ffffffffffffffffffffffffffffffffffffffff1673ffffffffffffffffffffffffffffffffffffffff163373ffffffffffffffffffffffffffffffffffffffff1614156115e8578060050160003373ffffffffffffffffffffffffffffffffffffffff1673ffffffffffffffffffffffffffffffffffffffff16815260200190815260200160002060009054906101000a900460ff1615611552576040517f08c379a00000000000000000000000000000000000000000000000000000000081526004016115499061240c565b60405180910390fd5b60018160050160003373ffffffffffffffffffffffffffffffffffffffff1673ffffffffffffffffffffffffffffffffffffffff16815260200190815260200160002060006101000a81548160ff0219169083151502179055507f3a37274ee0d4f64ce50e9dc176a1d54fc75271f562d5fc0375d2fcab67bcb4ec8484336040516115df9392919061251e565b60405180910390a15b5b8060050160008360020160009054906101000a900473ffffffffffffffffffffffffffffffffffffffff1673ffffffffffffffffffffffffffffffffffffffff1673ffffffffffffffffffffffffffffffffffffffff16815260200190815260200160002060009054906101000a900460ff1680156116d757508060050160008260020160009054906101000a900473ffffffffffffffffffffffffffffffffffffffff1673ffffffffffffffffffffffffffffffffffffffff1673ffffffffffffffffffffffffffffffffffffffff16815260200190815260200160002060009054906101000a900460ff165b156116fa5760018160040160006101000a81548160ff0219169083151502179055505b50505050565b606080600060606000806001600089815260200190815260200160002090506000816007016000898152602001908152602001600020905080600001816001018260020160009054906101000a900473ffffffffffffffffffffffffffffffffffffffff16836003018460040160009054906101000a900460ff1684805461178790612682565b80601f01602080910402602001604051908101604052809291908181526020018280546117b390612682565b80156118005780601f106117d557610100808354040283529160200191611800565b820191906000526020600020905b8154815290600101906020018083116117e357829003601f168201915b5050505050945083805461181390612682565b80601f016020809104026020016040519081016040528092919081815260200182805461183f90612682565b801561188c5780601f106118615761010080835404028352916020019161188c565b820191906000526020600020905b81548152906001019060200180831161186f57829003601f168201915b5050505050935081805461189f90612682565b80601f01602080910402602001604051908101604052809291908181526020018280546118cb90612682565b80156119185780601f106118ed57610100808354040283529160200191611918565b820191906000526020600020905b8154815290600101906020018083116118fb57829003601f168201915b505050505091509650965096509650965050509295509295909350565b82805461194190612682565b90600052602060002090601f01602090048101928261196357600085556119aa565b82601f1061197c57803560ff19168380011785556119aa565b828001600101855582156119aa579182015b828111156119a957823582559160200191906001019061198e565b5b5090506119b791906119bb565b5090565b5b808211156119d45760008160009055506001016119bc565b5090565b6000813590506119e78161276c565b92915050565b60008083601f8401126119ff57600080fd5b8235905067ffffffffffffffff811115611a1857600080fd5b602083019150836001820283011115611a3057600080fd5b9250929050565b600081359050611a4681612783565b92915050565b60008060008060008060006080888a031215611a6757600080fd5b600088013567ffffffffffffffff811115611a8157600080fd5b611a8d8a828b016119ed565b9750975050602088013567ffffffffffffffff811115611aac57600080fd5b611ab88a828b016119ed565b95509550506040611acb8a828b016119d8565b935050606088013567ffffffffffffffff811115611ae857600080fd5b611af48a828b016119ed565b925092505092959891949750929550565b600060208284031215611b1757600080fd5b6000611b2584828501611a37565b91505092915050565b60008060008060008060008060a0898b031215611b4a57600080fd5b6000611b588b828c01611a37565b985050602089013567ffffffffffffffff811115611b7557600080fd5b611b818b828c016119ed565b9750975050604089013567ffffffffffffffff811115611ba057600080fd5b611bac8b828c016119ed565b95509550506060611bbf8b828c016119d8565b935050608089013567ffffffffffffffff811115611bdc57600080fd5b611be88b828c016119ed565b92509250509295985092959890939650565b60008060408385031215611c0d57600080fd5b6000611c1b85828601611a37565b9250506020611c2c85828601611a37565b9150509250929050565b6000611c4283836121a0565b60208301905092915050565b611c57816125f8565b82525050565b6000611c68826125b3565b611c7281856125d6565b9350611c7d836125a3565b8060005b83811015611cae578151611c958882611c36565b9750611ca0836125c9565b925050600181019050611c81565b5085935050505092915050565b611cc48161260a565b82525050565b6000611cd683856125e7565b9350611ce3838584612640565b611cec8361275b565b840190509392505050565b6000611d02826125be565b611d0c81856125e7565b9350611d1c81856020860161264f565b611d258161275b565b840191505092915050565b6000611d3d601d836125e7565b91507f56656e646f7220616464726573732063616e6e6f74206265207a65726f0000006000830152602082019050919050565b6000611d7d6021836125e7565b91507f5375622d76656e646f7220616464726573732063616e6e6f74206265207a657260008301527f6f000000000000000000000000000000000000000000000000000000000000006020830152604082019050919050565b6000611de36026836125e7565b91507f4f6e6c7920746865206f776e65722063616e20706572666f726d20746869732060008301527f616374696f6e00000000000000000000000000000000000000000000000000006020830152604082019050919050565b6000611e496022836125e7565b91507f4d61696e2061677265656d656e7420697320616c726561647920636f6d706c6560008301527f74650000000000000000000000000000000000000000000000000000000000006020830152604082019050919050565b6000611eaf6021836125e7565b91507f5375622d61677265656d656e7420697320616c726561647920636f6d706c657460008301527f65000000000000000000000000000000000000000000000000000000000000006020830152604082019050919050565b6000611f156019836125e7565b91507f56656e646f722068617320616c7265616479207369676e6564000000000000006000830152602082019050919050565b6000611f55602e836125e7565b91507f4f6e6c792074686520617574686f72697a65642076656e646f722063616e206160008301527f6464207375622d76656e646f72730000000000000000000000000000000000006020830152604082019050919050565b6000611fbb6032836125e7565b91507f416c6c207375622d61677265656d656e7473206d75737420626520636f6d706c60008301527f657465206265666f7265207369676e696e6700000000000000000000000000006020830152604082019050919050565b6000612021602c836125e7565b91507f56656e646f722068617320616c7265616479207369676e65642074686973207360008301527f75622d61677265656d656e7400000000000000000000000000000000000000006020830152604082019050919050565b6000612087601d836125e7565b91507f41677265656d656e7420697320616c726561647920636f6d706c6574650000006000830152602082019050919050565b60006120c76030836125e7565b91507f5375622d76656e646f722068617320616c7265616479207369676e656420746860008301527f6973207375622d61677265656d656e74000000000000000000000000000000006020830152604082019050919050565b600061212d6013836125e7565b91507f556e617574686f72697a6564207369676e6572000000000000000000000000006000830152602082019050919050565b600061216d6018836125e7565b91507f4f776e65722068617320616c7265616479207369676e656400000000000000006000830152602082019050919050565b6121a981612636565b82525050565b6121b881612636565b82525050565b60006020820190506121d36000830184611c4e565b92915050565b600060a08201905081810360008301526121f38188611cf7565b905081810360208301526122078187611cf7565b90506122166040830186611c4e565b81810360608301526122288185611cf7565b90506122376080830184611cbb565b9695505050505050565b600060e082019050818103600083015261225b818a611cf7565b9050818103602083015261226f8189611cf7565b905061227e6040830188611c4e565b81810360608301526122908187611cf7565b905061229f6080830186611cbb565b6122ac60a08301856121af565b81810360c08301526122be8184611c5d565b905098975050505050505050565b600060208201905081810360008301526122e581611d30565b9050919050565b6000602082019050818103600083015261230581611d70565b9050919050565b6000602082019050818103600083015261232581611dd6565b9050919050565b6000602082019050818103600083015261234581611e3c565b9050919050565b6000602082019050818103600083015261236581611ea2565b9050919050565b6000602082019050818103600083015261238581611f08565b9050919050565b600060208201905081810360008301526123a581611f48565b9050919050565b600060208201905081810360008301526123c581611fae565b9050919050565b600060208201905081810360008301526123e581612014565b9050919050565b600060208201905081810360008301526124058161207a565b9050919050565b60006020820190508181036000830152612425816120ba565b9050919050565b6000602082019050818103600083015261244581612120565b9050919050565b6000602082019050818103600083015261246581612160565b9050919050565b600060208201905061248160008301846121af565b92915050565b600060408201905061249c60008301856121af565b6124a96020830184611c4e565b9392505050565b600060a0820190506124c5600083018b6121af565b6124d2602083018a611c4e565b81810360408301526124e581888a611cca565b905081810360608301526124fa818688611cca565b9050818103608083015261250f818486611cca565b90509998505050505050505050565b600060608201905061253360008301866121af565b61254060208301856121af565b61254d6040830184611c4e565b949350505050565b600060808201905061256a60008301886121af565b61257760208301876121af565b6125846040830186611c4e565b8181036060830152612597818486611cca565b90509695505050505050565b6000819050602082019050919050565b600081519050919050565b600081519050919050565b6000602082019050919050565b600082825260208201905092915050565b600082825260208201905092915050565b600061260382612616565b9050919050565b60008115159050919050565b600073ffffffffffffffffffffffffffffffffffffffff82169050919050565b6000819050919050565b82818337600083830152505050565b60005b8381101561266d578082015181840152602081019050612652565b8381111561267c576000848401525b50505050565b6000600282049050600182168061269a57607f821691505b602082108114156126ae576126ad61272c565b5b50919050565b60006126bf82612636565b91507fffffffffffffffffffffffffffffffffffffffffffffffffffffffffffffffff8214156126f2576126f16126fd565b5b600182019050919050565b7f4e487b7100000000000000000000000000000000000000000000000000000000600052601160045260246000fd5b7f4e487b7100000000000000000000000000000000000000000000000000000000600052602260045260246000fd5b6000601f19601f8301169050919050565b612775816125f8565b811461278057600080fd5b50565b61278c81612636565b811461279757600080fd5b5056fea26469706673582212201a1d02f8a21a8dc6ff94bba41fc1e69678bded0acb38dedb37f380a47163e8ad64736f6c63430008000033",
  "immutableReferences": {},
  "source": "// SPDX-License-Identifier: MIT\r\npragma solidity ^0.8.0;\r\n\r\ncontract SpiroAgreementManager {\r\n    struct SubAgreement {\r\n        string agreementHash;\r\n        string ipfsCID;\r\n        address subVendor;\r\n        string subVendorName; // Added sub-vendor name\r\n        bool isComplete;\r\n        mapping(address => bool) hasSigned;\r\n    }\r\n\r\n    struct Agreement {\r\n        string agreementHash;\r\n        string ipfsCID;\r\n        address vendor;\r\n        string vendorName; // Added vendor name\r\n        bool isComplete;\r\n        mapping(address => bool) hasSigned;\r\n        uint256 subAgreementCount;\r\n        mapping(uint256 => SubAgreement) subAgreements;\r\n    }\r\n\r\n    address public owner;\r\n    mapping(uint256 => Agreement) private agreements;\r\n    uint256 public agreementCount;\r\n\r\n    event AgreementCreated(uint256 agreementId, address vendor, string vendorName, string ipfsCID, string agreementHash);\r\n    event SubAgreementCreated(uint256 agreementId, uint256 subAgreementId, address subVendor, string subVendorName, string ipfsCID, string agreementHash);\r\n    event AgreementSigned(uint256 agreementId, address signer);\r\n    event SubAgreementSigned(uint256 agreementId, uint256 subAgreementId, address signer);\r\n\r\n    modifier onlyOwner() {\r\n        require(msg.sender == owner, \"Only the owner can perform this action\");\r\n        _;\r\n    }\r\n\r\n    constructor() {\r\n        owner = msg.sender;\r\n    }\r\n\r\n    function createAgreement(\r\n        string calldata _agreementHash,\r\n        string calldata _ipfsCID,\r\n        address _vendor,\r\n        string calldata _vendorName\r\n    ) external onlyOwner {\r\n        require(_vendor != address(0), \"Vendor address cannot be zero\");\r\n\r\n        uint256 agreementId = agreementCount;\r\n        Agreement storage agreement = agreements[agreementId];\r\n        agreement.agreementHash = _agreementHash;\r\n        agreement.ipfsCID = _ipfsCID;\r\n        agreement.vendor = _vendor;\r\n        agreement.vendorName = _vendorName;\r\n        agreement.isComplete = false;\r\n        agreement.hasSigned[owner] = false;\r\n        agreement.hasSigned[_vendor] = false;\r\n\r\n        agreementCount++;\r\n        emit AgreementCreated(agreementId, _vendor, _vendorName, _ipfsCID, _agreementHash);\r\n    }\r\n\r\n    event SubAgreementCreated(uint256 agreementId, uint256 subAgreementId, address subVendor, string subVendorName);\r\n\r\n    function createSubAgreement(\r\n        uint256 _agreementId,\r\n        string calldata _agreementHash,\r\n        string calldata _ipfsCID,\r\n        address _subVendor,\r\n        string calldata _subVendorName\r\n    ) external {\r\n        Agreement storage agreement = agreements[_agreementId];\r\n        require(msg.sender == agreement.vendor, \"Only the authorized vendor can add sub-vendors\");\r\n        require(!agreement.isComplete, \"Main agreement is already complete\");\r\n        require(_subVendor != address(0), \"Sub-vendor address cannot be zero\");\r\n\r\n        uint256 subAgreementId = agreement.subAgreementCount;\r\n        SubAgreement storage subAgreement = agreement.subAgreements[subAgreementId];\r\n        subAgreement.agreementHash = _agreementHash;\r\n        subAgreement.ipfsCID = _ipfsCID;\r\n        subAgreement.subVendor = _subVendor;\r\n        subAgreement.subVendorName = _subVendorName;\r\n        subAgreement.isComplete = false;\r\n        subAgreement.hasSigned[msg.sender] = false;\r\n        subAgreement.hasSigned[_subVendor] = false;\r\n\r\n        agreement.subAgreementCount++;\r\n        \r\n        // Emit event with fewer parameters\r\n        emit SubAgreementCreated(_agreementId, subAgreementId, _subVendor, _subVendorName);\r\n    }\r\n\r\n    function viewAgreement(uint256 _agreementId)\r\n        external\r\n        view\r\n        returns (\r\n            string memory agreementHash,\r\n            string memory ipfsCID,\r\n            address vendor,\r\n            string memory vendorName,\r\n            bool isComplete,\r\n            uint256 subAgreementCount,\r\n            uint256[] memory subAgreementIndexes\r\n        )\r\n    {\r\n        Agreement storage agreement = agreements[_agreementId];\r\n        uint256[] memory subIndexes = new uint256[](agreement.subAgreementCount);\r\n        for (uint256 i = 0; i < agreement.subAgreementCount; i++) {\r\n            subIndexes[i] = i;\r\n        }\r\n\r\n        return (\r\n            agreement.agreementHash,\r\n            agreement.ipfsCID,\r\n            agreement.vendor,\r\n            agreement.vendorName,\r\n            agreement.isComplete,\r\n            agreement.subAgreementCount,\r\n            subIndexes\r\n        );\r\n    }\r\n\r\n    function viewSubAgreement(uint256 _agreementId, uint256 _subAgreementId)\r\n        external\r\n        view\r\n        returns (\r\n            string memory agreementHash,\r\n            string memory ipfsCID,\r\n            address subVendor,\r\n            string memory subVendorName,\r\n            bool isComplete\r\n        )\r\n    {\r\n        Agreement storage agreement = agreements[_agreementId];\r\n        SubAgreement storage subAgreement = agreement.subAgreements[_subAgreementId];\r\n\r\n        return (\r\n            subAgreement.agreementHash,\r\n            subAgreement.ipfsCID,\r\n            subAgreement.subVendor,\r\n            subAgreement.subVendorName,\r\n            subAgreement.isComplete\r\n        );\r\n    }\r\n\r\n    // Sign a main agreement\r\n    function signAgreement(uint256 _agreementId) external {\r\n        Agreement storage agreement = agreements[_agreementId];\r\n        require(!agreement.isComplete, \"Agreement is already complete\");\r\n\r\n        // Ensure only authorized parties can sign the agreement\r\n        require(\r\n            msg.sender == owner || msg.sender == agreement.vendor,\r\n            \"Unauthorized signer\"\r\n        );\r\n\r\n        if (msg.sender == owner) {\r\n            require(!agreement.hasSigned[owner], \"Owner has already signed\");\r\n            agreement.hasSigned[owner] = true;\r\n            emit AgreementSigned(_agreementId, msg.sender);\r\n        } else if (msg.sender == agreement.vendor) {\r\n            // Ensure all sub-agreements are completed before signing\r\n            for (uint256 i = 0; i < agreement.subAgreementCount; i++) {\r\n                require(agreement.subAgreements[i].isComplete, \"All sub-agreements must be complete before signing\");\r\n            }\r\n            require(!agreement.hasSigned[agreement.vendor], \"Vendor has already signed\");\r\n            agreement.hasSigned[agreement.vendor] = true;\r\n            emit AgreementSigned(_agreementId, msg.sender);\r\n        }\r\n\r\n        // Check if both parties have signed\r\n        if (agreement.hasSigned[owner] && agreement.hasSigned[agreement.vendor]) {\r\n            agreement.isComplete = true;\r\n        }\r\n    }\r\n\r\n\r\n    // Sign a sub-agreement\r\n    function signSubAgreement(uint256 _agreementId, uint256 _subAgreementId) external {\r\n        Agreement storage agreement = agreements[_agreementId];\r\n        SubAgreement storage subAgreement = agreement.subAgreements[_subAgreementId];\r\n        require(!subAgreement.isComplete, \"Sub-agreement is already complete\");\r\n\r\n        // Ensure only authorized participants can sign\r\n        require(\r\n            msg.sender == agreement.vendor || msg.sender == subAgreement.subVendor,\r\n            \"Unauthorized signer\"\r\n        );\r\n\r\n        if (msg.sender == agreement.vendor) {\r\n            require(!subAgreement.hasSigned[msg.sender], \"Vendor has already signed this sub-agreement\");\r\n            subAgreement.hasSigned[msg.sender] = true;\r\n            emit SubAgreementSigned(_agreementId, _subAgreementId, msg.sender);\r\n        } else if (msg.sender == subAgreement.subVendor) {\r\n            require(!subAgreement.hasSigned[msg.sender], \"Sub-vendor has already signed this sub-agreement\");\r\n            subAgreement.hasSigned[msg.sender] = true;\r\n            emit SubAgreementSigned(_agreementId, _subAgreementId, msg.sender);\r\n        }\r\n\r\n        // Check if both parties have signed\r\n        if (subAgreement.hasSigned[agreement.vendor] && subAgreement.hasSigned[subAgreement.subVendor]) {\r\n            subAgreement.isComplete = true;\r\n        }\r\n    }\r\n}",
  "sourcePath": "C:\\Users\\jatin.choubey\\newMulti\\contracts\\SpiroAgreementManager.sol",
  "compiler": {
    "name": "solc",
    "version": "0.8.0+commit.c7dfd78e.Emscripten.clang"
  },
  "schemaVersion": "3.4.16",
  "updatedAt": "2025-02-25T05:55:02.614Z",
  "networkType": "ethereum",
  "devdoc": {
    "kind": "dev",
    "methods": {},
    "version": 1
  },
  "userdoc": {
    "kind": "user",
    "methods": {},
    "version": 1
  }
}